{
  "contractName": "Voting",
  "abi": [
    {
      "anonymous": false,
      "inputs": [
        {
          "indexed": false,
          "internalType": "uint256",
          "name": "pollId",
          "type": "uint256"
        },
        {
          "indexed": false,
          "internalType": "address[]",
          "name": "winners",
          "type": "address[]"
        }
      ],
      "name": "PollClosed",
      "type": "event"
    },
    {
      "anonymous": false,
      "inputs": [
        {
          "indexed": false,
          "internalType": "uint256",
          "name": "pollId",
          "type": "uint256"
        },
        {
          "indexed": false,
          "internalType": "string",
          "name": "title",
          "type": "string"
        },
        {
          "indexed": false,
          "internalType": "uint256",
          "name": "endTime",
          "type": "uint256"
        },
        {
          "indexed": false,
          "internalType": "uint256",
          "name": "reward",
          "type": "uint256"
        },
        {
          "indexed": false,
          "internalType": "uint256",
          "name": "joinFee",
          "type": "uint256"
        },
        {
          "indexed": false,
          "internalType": "string[]",
          "name": "options",
          "type": "string[]"
        },
        {
          "indexed": false,
          "internalType": "address",
          "name": "creator",
          "type": "address"
        }
      ],
      "name": "PollCreated",
      "type": "event"
    },
    {
      "anonymous": false,
      "inputs": [
        {
          "indexed": false,
          "internalType": "uint256",
          "name": "pollId",
          "type": "uint256"
        },
        {
          "indexed": false,
          "internalType": "address",
          "name": "participant",
          "type": "address"
        }
      ],
      "name": "PollJoined",
      "type": "event"
    },
    {
      "anonymous": false,
      "inputs": [
        {
          "indexed": false,
          "internalType": "uint256",
          "name": "pollId",
          "type": "uint256"
        },
        {
          "indexed": false,
          "internalType": "address",
          "name": "voter",
          "type": "address"
        },
        {
          "indexed": false,
          "internalType": "uint256",
          "name": "optionId",
          "type": "uint256"
        }
      ],
      "name": "PollVoted",
      "type": "event"
    },
    {
      "inputs": [],
      "name": "pollCount",
      "outputs": [
        {
          "internalType": "uint256",
          "name": "",
          "type": "uint256"
        }
      ],
      "stateMutability": "view",
      "type": "function",
      "constant": true
    },
    {
      "inputs": [
        {
          "internalType": "uint256",
          "name": "",
          "type": "uint256"
        }
      ],
      "name": "polls",
      "outputs": [
        {
          "internalType": "string",
          "name": "title",
          "type": "string"
        },
        {
          "internalType": "uint256",
          "name": "endTime",
          "type": "uint256"
        },
        {
          "internalType": "uint256",
          "name": "reward",
          "type": "uint256"
        },
        {
          "internalType": "uint256",
          "name": "joinFee",
          "type": "uint256"
        },
        {
          "internalType": "address",
          "name": "creator",
          "type": "address"
        },
        {
          "internalType": "uint256",
          "name": "totalVotes",
          "type": "uint256"
        },
        {
          "internalType": "bool",
          "name": "isOpen",
          "type": "bool"
        }
      ],
      "stateMutability": "view",
      "type": "function",
      "constant": true
    },
    {
      "inputs": [
        {
          "internalType": "string",
          "name": "_title",
          "type": "string"
        },
        {
          "internalType": "uint256",
          "name": "_endTime",
          "type": "uint256"
        },
        {
          "internalType": "uint256",
          "name": "_reward",
          "type": "uint256"
        },
        {
          "internalType": "uint256",
          "name": "_joinFee",
          "type": "uint256"
        },
        {
          "internalType": "string[]",
          "name": "_options",
          "type": "string[]"
        }
      ],
      "name": "createPoll",
      "outputs": [],
      "stateMutability": "payable",
      "type": "function",
      "payable": true
    },
    {
      "inputs": [
        {
          "internalType": "uint256",
          "name": "_pollId",
          "type": "uint256"
        }
      ],
      "name": "joinPoll",
      "outputs": [],
      "stateMutability": "payable",
      "type": "function",
      "payable": true
    },
    {
      "inputs": [
        {
          "internalType": "uint256",
          "name": "_pollId",
          "type": "uint256"
        },
        {
          "internalType": "uint256",
          "name": "_optionId",
          "type": "uint256"
        }
      ],
      "name": "vote",
      "outputs": [],
      "stateMutability": "nonpayable",
      "type": "function"
    },
    {
      "inputs": [
        {
          "internalType": "uint256",
          "name": "_pollId",
          "type": "uint256"
        }
      ],
      "name": "closePoll",
      "outputs": [],
      "stateMutability": "nonpayable",
      "type": "function"
    },
    {
      "inputs": [
        {
          "internalType": "uint256",
          "name": "_pollId",
          "type": "uint256"
        }
      ],
      "name": "getOptions",
      "outputs": [
        {
          "internalType": "string[]",
          "name": "",
          "type": "string[]"
        }
      ],
      "stateMutability": "view",
      "type": "function",
      "constant": true
    },
    {
      "inputs": [
        {
          "internalType": "uint256",
          "name": "_pollId",
          "type": "uint256"
        },
        {
          "internalType": "uint256",
          "name": "_optionId",
          "type": "uint256"
        }
      ],
      "name": "getVotes",
      "outputs": [
        {
          "internalType": "uint256",
          "name": "",
          "type": "uint256"
        }
      ],
      "stateMutability": "view",
      "type": "function",
      "constant": true
    },
    {
      "inputs": [
        {
          "internalType": "uint256",
          "name": "_pollId",
          "type": "uint256"
        }
      ],
      "name": "getWinners",
      "outputs": [
        {
          "internalType": "address[]",
          "name": "",
          "type": "address[]"
        }
      ],
      "stateMutability": "view",
      "type": "function",
      "constant": true
    }
  ],
  "bytecode": "0x608060405234801561001057600080fd5b50612c55806100206000396000f3fe6080604052600436106100865760003560e01c806391f366331161005957806391f366331461013d5780639207891d1461017a5780639534e637146101a5578063ac2f0074146101ce578063b384abef1461021157610086565b806348aa92cf1461008b5780636b1426a4146100a757806383fc0f09146100e45780638915b3fb14610100575b600080fd5b6100a560048036038101906100a09190611a36565b61023a565b005b3480156100b357600080fd5b506100ce60048036038101906100c99190611add565b610518565b6040516100db91906120fe565b60405180910390f35b6100fe60048036038101906100f99190611add565b6105bb565b005b34801561010c57600080fd5b5061012760048036038101906101229190611add565b610948565b6040516101349190612120565b60405180910390f35b34801561014957600080fd5b50610164600480360381019061015f9190611b06565b610a36565b60405161017191906122f8565b60405180910390f35b34801561018657600080fd5b5061018f610a67565b60405161019c91906122f8565b60405180910390f35b3480156101b157600080fd5b506101cc60048036038101906101c79190611add565b610a6d565b005b3480156101da57600080fd5b506101f560048036038101906101f09190611add565b610ed3565b6040516102089796959493929190612142565b60405180910390f35b34801561021d57600080fd5b5061023860048036038101906102339190611b06565b610fca565b005b6706f05b59d3b200008361024e91906125e3565b341015610290576040517f08c379a000000000000000000000000000000000000000000000000000000000815260040161028790612298565b60405180910390fd5b60005b81518110156103ed5760006001826102ab91906125e3565b90505b82518110156103d9578281815181106102f0577f4e487b7100000000000000000000000000000000000000000000000000000000600052603260045260246000fd5b602002602001015160405160200161030891906120d0565b60405160208183030381529060405280519060200120838381518110610357577f4e487b7100000000000000000000000000000000000000000000000000000000600052603260045260246000fd5b602002602001015160405160200161036f91906120d0565b6040516020818303038152906040528051906020012014156103c6576040517f08c379a00000000000000000000000000000000000000000000000000000000081526004016103bd906121f8565b60405180910390fd5b80806103d190612ac5565b9150506102ae565b5080806103e590612ac5565b915050610293565b5060006001600081548092919061040390612ac5565b91905055905060008060008381526020019081526020016000209050868160000190805190602001906104379291906117cb565b50858160010181905550848160020181905550338160040160006101000a81548173ffffffffffffffffffffffffffffffffffffffff021916908373ffffffffffffffffffffffffffffffffffffffff160217905550828160090190805190602001906104a5929190611851565b50600181600a0160006101000a81548160ff0219169083151502179055508381600301819055507fed4f1ae2ba2b218f1492dfce8207420a7dbf8aaa84b2685dd63707998556f87f8288888888883360405161050797969594939291906123a3565b60405180910390a150505050505050565b6060600080838152602001908152602001600020600b018054806020026020016040519081016040528092919081815260200182805480156105af57602002820191906000526020600020905b8160009054906101000a900473ffffffffffffffffffffffffffffffffffffffff1673ffffffffffffffffffffffffffffffffffffffff1681526020019060010190808311610565575b50505050509050919050565b6000806000838152602001908152602001600020905080600a0160009054906101000a900460ff16610622576040517f08c379a000000000000000000000000000000000000000000000000000000000815260040161061990612258565b60405180910390fd5b8060050160003373ffffffffffffffffffffffffffffffffffffffff1673ffffffffffffffffffffffffffffffffffffffff16815260200190815260200160002060009054906101000a900460ff16156106b1576040517f08c379a00000000000000000000000000000000000000000000000000000000081526004016106a8906121d8565b60405180910390fd5b80600301543410156106f8576040517f08c379a00000000000000000000000000000000000000000000000000000000081526004016106ef906122b8565b60405180910390fd5b60005b81600901805490508110156107f957610713336112ea565b60405160200161072391906120d0565b60405160208183030381529060405280519060200120826009018281548110610775577f4e487b7100000000000000000000000000000000000000000000000000000000600052603260045260246000fd5b9060005260206000200160405160200161078f91906120e7565b6040516020818303038152906040528051906020012014156107e6576040517f08c379a00000000000000000000000000000000000000000000000000000000081526004016107dd906122d8565b60405180910390fd5b80806107f190612ac5565b9150506106fb565b5060008160040160009054906101000a900473ffffffffffffffffffffffffffffffffffffffff1690508073ffffffffffffffffffffffffffffffffffffffff166108fc349081150290604051600060405180830381858888f19350505050158015610869573d6000803e3d6000fd5b5060018260050160003373ffffffffffffffffffffffffffffffffffffffff1673ffffffffffffffffffffffffffffffffffffffff16815260200190815260200160002060006101000a81548160ff021916908315150217905550816009016108d1336112ea565b9080600181540180825580915050600190039060005260206000200160009091909190915090805190602001906109099291906117cb565b507fffe876aac8ad9214dcdd9c6fd4b1c913c151d50871d8346bdfdc19a8adb8b69c833360405161093b929190612313565b60405180910390a1505050565b6060600080838152602001908152602001600020600901805480602002602001604051908101604052809291908181526020016000905b82821015610a2b57838290600052602060002001805461099e90612a79565b80601f01602080910402602001604051908101604052809291908181526020018280546109ca90612a79565b8015610a175780601f106109ec57610100808354040283529160200191610a17565b820191906000526020600020905b8154815290600101906020018083116109fa57829003601f168201915b50505050508152602001906001019061097f565b505050509050919050565b6000806000848152602001908152602001600020600701600083815260200190815260200160002054905092915050565b60015481565b600080600083815260200190815260200160002090508060010154421015610aca576040517f08c379a0000000000000000000000000000000000000000000000000000000008152600401610ac190612218565b60405180910390fd5b600081600a0160006101000a81548160ff0219169083151502179055506000805b8260090180549050811015610b435781836007016000838152602001908152602001600020541115610b30578260070160008281526020019081526020016000205491505b8080610b3b90612ac5565b915050610aeb565b5060006001905060005b8360090180549050811015610b96576000846007016000838152602001908152602001600020541115610b835760009150610b96565b8080610b8e90612ac5565b915050610b4d565b508015610c11578260040160009054906101000a900473ffffffffffffffffffffffffffffffffffffffff1673ffffffffffffffffffffffffffffffffffffffff166108fc84600201549081150290604051600060405180830381858888f19350505050158015610c0b573d6000803e3d6000fd5b50610e91565b60005b8360090180549050811015610d8f5782846007016000838152602001908152602001600020541415610d7c5783600b01610d1b856009018381548110610c83577f4e487b7100000000000000000000000000000000000000000000000000000000600052603260045260246000fd5b906000526020600020018054610c9890612a79565b80601f0160208091040260200160405190810160405280929190818152602001828054610cc490612a79565b8015610d115780601f10610ce657610100808354040283529160200191610d11565b820191906000526020600020905b815481529060010190602001808311610cf457829003601f168201915b505050505061151f565b9080600181540180825580915050600190039060005260206000200160009091909190916101000a81548173ffffffffffffffffffffffffffffffffffffffff021916908373ffffffffffffffffffffffffffffffffffffffff1602179055505b8080610d8790612ac5565b915050610c14565b50600083600b01805490501115610e9057600083600b01805490508460020154610db99190612670565b905060005b84600b0180549050811015610e8d5784600b018181548110610e09577f4e487b7100000000000000000000000000000000000000000000000000000000600052603260045260246000fd5b9060005260206000200160009054906101000a900473ffffffffffffffffffffffffffffffffffffffff1673ffffffffffffffffffffffffffffffffffffffff166108fc839081150290604051600060405180830381858888f19350505050158015610e79573d6000803e3d6000fd5b508080610e8590612ac5565b915050610dbe565b50505b5b7f9a13ddbfcd57179c44b159790f44d9b78463432028f8fe130f01d5607d5e0f978484600b01604051610ec5929190612373565b60405180910390a150505050565b6000602052806000526040600020600091509050806000018054610ef690612a79565b80601f0160208091040260200160405190810160405280929190818152602001828054610f2290612a79565b8015610f6f5780601f10610f4457610100808354040283529160200191610f6f565b820191906000526020600020905b815481529060010190602001808311610f5257829003601f168201915b5050505050908060010154908060020154908060030154908060040160009054906101000a900473ffffffffffffffffffffffffffffffffffffffff169080600801549080600a0160009054906101000a900460ff16905087565b6000806000848152602001908152602001600020905080600a0160009054906101000a900460ff16611031576040517f08c379a000000000000000000000000000000000000000000000000000000000815260040161102890612258565b60405180910390fd5b8060060160003373ffffffffffffffffffffffffffffffffffffffff1673ffffffffffffffffffffffffffffffffffffffff16815260200190815260200160002060009054906101000a900460ff16156110c0576040517f08c379a00000000000000000000000000000000000000000000000000000000081526004016110b790612278565b60405180910390fd5b80600901805490508210611109576040517f08c379a000000000000000000000000000000000000000000000000000000000815260040161110090612238565b60405180910390fd5b60005b816009018054905081101561120a57611124336112ea565b60405160200161113491906120d0565b60405160208183030381529060405280519060200120826009018281548110611186577f4e487b7100000000000000000000000000000000000000000000000000000000600052603260045260246000fd5b906000526020600020016040516020016111a091906120e7565b6040516020818303038152906040528051906020012014156111f7576040517f08c379a00000000000000000000000000000000000000000000000000000000081526004016111ee906121b8565b60405180910390fd5b808061120290612ac5565b91505061110c565b50806007016000838152602001908152602001600020600081548092919061123190612ac5565b919050555080600801600081548092919061124b90612ac5565b919050555060018160060160003373ffffffffffffffffffffffffffffffffffffffff1673ffffffffffffffffffffffffffffffffffffffff16815260200190815260200160002060006101000a81548160ff0219169083151502179055507f41b9ea38e0dca627a5a8588a7edd2198d6d8e43ec5a6161fa126559a0eb570148333846040516112dd9392919061233c565b60405180910390a1505050565b60606000602867ffffffffffffffff81111561132f577f4e487b7100000000000000000000000000000000000000000000000000000000600052604160045260246000fd5b6040519080825280601f01601f1916602001820160405280156113615781602001600182028036833780820191505090505b50905060005b601481101561151557600081601361137f919061295a565b600861138b9190612891565b60026113979190612725565b8573ffffffffffffffffffffffffffffffffffffffff166113b89190612670565b60f81b9050600060108260f81c6113cf91906126a1565b60f81b905060008160f81c60106113e691906128eb565b8360f81c6113f4919061298e565b60f81b905061140282611785565b858560026114109190612891565b81518110611447577f4e487b7100000000000000000000000000000000000000000000000000000000600052603260045260246000fd5b60200101907effffffffffffffffffffffffffffffffffffffffffffffffffffffffffffff1916908160001a90535061147f81611785565b85600186600261148f9190612891565b61149991906125e3565b815181106114d0577f4e487b7100000000000000000000000000000000000000000000000000000000600052603260045260246000fd5b60200101907effffffffffffffffffffffffffffffffffffffffffffffffffffffffffffff1916908160001a905350505050808061150d90612ac5565b915050611367565b5080915050919050565b6000808290506000808060005b602881101561177857610100846115439190612843565b935084818151811061157e577f4e487b7100000000000000000000000000000000000000000000000000000000600052603260045260246000fd5b602001015160f81c60f81b60f81c60ff1692508460018261159f91906125e3565b815181106115d6577f4e487b7100000000000000000000000000000000000000000000000000000000600052603260045260246000fd5b602001015160f81c60f81b60f81c60ff16915060618373ffffffffffffffffffffffffffffffffffffffff1610158015611627575060668373ffffffffffffffffffffffffffffffffffffffff1611155b15611640576057836116399190612926565b9250611694565b60308373ffffffffffffffffffffffffffffffffffffffff161015801561167e575060398373ffffffffffffffffffffffffffffffffffffffff1611155b15611693576030836116909190612926565b92505b5b60618273ffffffffffffffffffffffffffffffffffffffff16101580156116d2575060668273ffffffffffffffffffffffffffffffffffffffff1611155b156116eb576057826116e49190612926565b915061173f565b60308273ffffffffffffffffffffffffffffffffffffffff1610158015611729575060398273ffffffffffffffffffffffffffffffffffffffff1611155b1561173e5760308261173b9190612926565b91505b5b8160108461174d9190612843565b6117579190612599565b846117629190612599565b935060028161177191906125e3565b905061152c565b5082945050505050919050565b6000600a8260f81c60ff1610156117b05760308260f81c6117a69190612639565b60f81b90506117c6565b60578260f81c6117c09190612639565b60f81b90505b919050565b8280546117d790612a79565b90600052602060002090601f0160209004810192826117f95760008555611840565b82601f1061181257805160ff1916838001178555611840565b82800160010185558215611840579182015b8281111561183f578251825591602001919060010190611824565b5b50905061184d91906118b1565b5090565b8280548282559060005260206000209081019282156118a0579160200282015b8281111561189f57825182908051906020019061188f9291906117cb565b5091602001919060010190611871565b5b5090506118ad91906118ce565b5090565b5b808211156118ca5760008160009055506001016118b2565b5090565b5b808211156118ee57600081816118e591906118f2565b506001016118cf565b5090565b5080546118fe90612a79565b6000825580601f10611910575061192f565b601f01602090049060005260206000209081019061192e91906118b1565b5b50565b600061194561194084612451565b612420565b9050808382526020820190508260005b85811015611985578135850161196b88826119f7565b845260208401935060208301925050600181019050611955565b5050509392505050565b60006119a261199d8461247d565b612420565b9050828152602081018484840111156119ba57600080fd5b6119c5848285612a37565b509392505050565b600082601f8301126119de57600080fd5b81356119ee848260208601611932565b91505092915050565b600082601f830112611a0857600080fd5b8135611a1884826020860161198f565b91505092915050565b600081359050611a3081612c08565b92915050565b600080600080600060a08688031215611a4e57600080fd5b600086013567ffffffffffffffff811115611a6857600080fd5b611a74888289016119f7565b9550506020611a8588828901611a21565b9450506040611a9688828901611a21565b9350506060611aa788828901611a21565b925050608086013567ffffffffffffffff811115611ac457600080fd5b611ad0888289016119cd565b9150509295509295909350565b600060208284031215611aef57600080fd5b6000611afd84828501611a21565b91505092915050565b60008060408385031215611b1957600080fd5b6000611b2785828601611a21565b9250506020611b3885828601611a21565b9150509250929050565b6000611b4e8383611b6e565b60208301905092915050565b6000611b668383611cd3565b905092915050565b611b77816129e2565b82525050565b611b86816129e2565b82525050565b6000611b97826124f7565b611ba1818561254a565b9350611bac836124ad565b8060005b83811015611bdd578151611bc48882611b42565b9750611bcf83612523565b925050600181019050611bb0565b5085935050505092915050565b6000611bf582612502565b611bff818561254a565b9350611c0a836124bd565b8060005b83811015611c4257611c1f82612bca565b611c298882611b42565b9750611c3483612530565b925050600181019050611c0e565b5085935050505092915050565b6000611c5a8261250d565b611c64818561255b565b935083602082028501611c76856124d2565b8060005b85811015611cb25784840389528151611c938582611b5a565b9450611c9e8361253d565b925060208a01995050600181019050611c7a565b50829750879550505050505092915050565b611ccd816129f4565b82525050565b6000611cde82612518565b611ce8818561256c565b9350611cf8818560208601612a46565b611d0181612bdd565b840191505092915050565b6000611d1782612518565b611d21818561257d565b9350611d31818560208601612a46565b611d3a81612bdd565b840191505092915050565b6000611d5082612518565b611d5a818561258e565b9350611d6a818560208601612a46565b80840191505092915050565b60008154611d8381612a79565b611d8d818661258e565b94506001821660008114611da85760018114611db957611dec565b60ff19831686528186019350611dec565b611dc2856124e2565b60005b83811015611de457815481890152600182019150602081019050611dc5565b838801955050505b50505092915050565b6000611e02601f8361257d565b91507f566f74657220697320616e206f7074696f6e20696e207468697320706f6c6c006000830152602082019050919050565b6000611e42600e8361257d565b91507f416c7265616479206a6f696e65640000000000000000000000000000000000006000830152602082019050919050565b6000611e82601d8361257d565b91507f4475706c6963617465206f7074696f6e73206e6f7420616c6c6f7765640000006000830152602082019050919050565b6000611ec260128361257d565b91507f506f6c6c206973207374696c6c206f70656e00000000000000000000000000006000830152602082019050919050565b6000611f02600e8361257d565b91507f496e76616c6964206f7074696f6e0000000000000000000000000000000000006000830152602082019050919050565b6000611f42600e8361257d565b91507f506f6c6c20697320636c6f7365640000000000000000000000000000000000006000830152602082019050919050565b6000611f82600d8361257d565b91507f416c726561647920766f746564000000000000000000000000000000000000006000830152602082019050919050565b6000611fc260268361257d565b91507f496e73756666696369656e74207061796d656e7420666f72206372656174696e60008301527f6720706f6c6c00000000000000000000000000000000000000000000000000006020830152604082019050919050565b600061202860258361257d565b91507f496e73756666696369656e74207061796d656e7420666f72206a6f696e696e6760008301527f20706f6c6c0000000000000000000000000000000000000000000000000000006020830152604082019050919050565b600061208e60198361257d565b91507f4164647265737320616c726561647920616e206f7074696f6e000000000000006000830152602082019050919050565b6120ca81612a20565b82525050565b60006120dc8284611d45565b915081905092915050565b60006120f38284611d76565b915081905092915050565b600060208201905081810360008301526121188184611b8c565b905092915050565b6000602082019050818103600083015261213a8184611c4f565b905092915050565b600060e082019050818103600083015261215c818a611d0c565b905061216b60208301896120c1565b61217860408301886120c1565b61218560608301876120c1565b6121926080830186611b7d565b61219f60a08301856120c1565b6121ac60c0830184611cc4565b98975050505050505050565b600060208201905081810360008301526121d181611df5565b9050919050565b600060208201905081810360008301526121f181611e35565b9050919050565b6000602082019050818103600083015261221181611e75565b9050919050565b6000602082019050818103600083015261223181611eb5565b9050919050565b6000602082019050818103600083015261225181611ef5565b9050919050565b6000602082019050818103600083015261227181611f35565b9050919050565b6000602082019050818103600083015261229181611f75565b9050919050565b600060208201905081810360008301526122b181611fb5565b9050919050565b600060208201905081810360008301526122d18161201b565b9050919050565b600060208201905081810360008301526122f181612081565b9050919050565b600060208201905061230d60008301846120c1565b92915050565b600060408201905061232860008301856120c1565b6123356020830184611b7d565b9392505050565b600060608201905061235160008301866120c1565b61235e6020830185611b7d565b61236b60408301846120c1565b949350505050565b600060408201905061238860008301856120c1565b818103602083015261239a8184611bea565b90509392505050565b600060e0820190506123b8600083018a6120c1565b81810360208301526123ca8189611d0c565b90506123d960408301886120c1565b6123e660608301876120c1565b6123f360808301866120c1565b81810360a08301526124058185611c4f565b905061241460c0830184611b7d565b98975050505050505050565b6000604051905081810181811067ffffffffffffffff8211171561244757612446612b9b565b5b8060405250919050565b600067ffffffffffffffff82111561246c5761246b612b9b565b5b602082029050602081019050919050565b600067ffffffffffffffff82111561249857612497612b9b565b5b601f19601f8301169050602081019050919050565b6000819050602082019050919050565b60008190508160005260206000209050919050565b6000819050602082019050919050565b60008190508160005260206000209050919050565b600081519050919050565b600081549050919050565b600081519050919050565b600081519050919050565b6000602082019050919050565b6000600182019050919050565b6000602082019050919050565b600082825260208201905092915050565b600082825260208201905092915050565b600082825260208201905092915050565b600082825260208201905092915050565b600081905092915050565b60006125a482612a00565b91506125af83612a00565b92508273ffffffffffffffffffffffffffffffffffffffff038211156125d8576125d7612b0e565b5b828201905092915050565b60006125ee82612a20565b91506125f983612a20565b9250827fffffffffffffffffffffffffffffffffffffffffffffffffffffffffffffffff0382111561262e5761262d612b0e565b5b828201905092915050565b600061264482612a2a565b915061264f83612a2a565b92508260ff0382111561266557612664612b0e565b5b828201905092915050565b600061267b82612a20565b915061268683612a20565b92508261269657612695612b3d565b5b828204905092915050565b60006126ac82612a2a565b91506126b783612a2a565b9250826126c7576126c6612b3d565b5b828204905092915050565b6000808291508390505b600185111561271c578086048111156126f8576126f7612b0e565b5b60018516156127075780820291505b808102905061271585612bfb565b94506126dc565b94509492505050565b600061273082612a20565b915061273b83612a20565b92506127687fffffffffffffffffffffffffffffffffffffffffffffffffffffffffffffffff8484612770565b905092915050565b600082612780576001905061283c565b8161278e576000905061283c565b81600181146127a457600281146127ae576127dd565b600191505061283c565b60ff8411156127c0576127bf612b0e565b5b8360020a9150848211156127d7576127d6612b0e565b5b5061283c565b5060208310610133831016604e8410600b84101617156128125782820a90508381111561280d5761280c612b0e565b5b61283c565b61281f84848460016126d2565b9250905081840481111561283657612835612b0e565b5b81810290505b9392505050565b600061284e82612a00565b915061285983612a00565b92508173ffffffffffffffffffffffffffffffffffffffff048311821515161561288657612885612b0e565b5b828202905092915050565b600061289c82612a20565b91506128a783612a20565b9250817fffffffffffffffffffffffffffffffffffffffffffffffffffffffffffffffff04831182151516156128e0576128df612b0e565b5b828202905092915050565b60006128f682612a2a565b915061290183612a2a565b92508160ff048311821515161561291b5761291a612b0e565b5b828202905092915050565b600061293182612a00565b915061293c83612a00565b92508282101561294f5761294e612b0e565b5b828203905092915050565b600061296582612a20565b915061297083612a20565b92508282101561298357612982612b0e565b5b828203905092915050565b600061299982612a2a565b91506129a483612a2a565b9250828210156129b7576129b6612b0e565b5b828203905092915050565b600073ffffffffffffffffffffffffffffffffffffffff82169050919050565b60006129ed82612a00565b9050919050565b60008115159050919050565b600073ffffffffffffffffffffffffffffffffffffffff82169050919050565b6000819050919050565b600060ff82169050919050565b82818337600083830152505050565b60005b83811015612a64578082015181840152602081019050612a49565b83811115612a73576000848401525b50505050565b60006002820490506001821680612a9157607f821691505b60208210811415612aa557612aa4612b6c565b5b50919050565b6000612abe612ab983612bee565b6129c2565b9050919050565b6000612ad082612a20565b91507fffffffffffffffffffffffffffffffffffffffffffffffffffffffffffffffff821415612b0357612b02612b0e565b5b600182019050919050565b7f4e487b7100000000000000000000000000000000000000000000000000000000600052601160045260246000fd5b7f4e487b7100000000000000000000000000000000000000000000000000000000600052601260045260246000fd5b7f4e487b7100000000000000000000000000000000000000000000000000000000600052602260045260246000fd5b7f4e487b7100000000000000000000000000000000000000000000000000000000600052604160045260246000fd5b6000612bd68254612aab565b9050919050565b6000601f19601f8301169050919050565b60008160001c9050919050565b60008160011c9050919050565b612c1181612a20565b8114612c1c57600080fd5b5056fea26469706673582212201119717ae1870c8f42c8a41819570798435533c9617554bc5448c1aac9ba6e7e64736f6c63430008000033",
  "immutableReferences": {},
  "source": "// SPDX-License-Identifier: MIT\r\npragma solidity ^0.8.0;\r\n\r\ncontract Voting {\r\n    struct Poll {\r\n        string title;\r\n        uint256 endTime;\r\n        uint256 reward;\r\n        uint256 joinFee;\r\n        address creator;\r\n        mapping(address => bool) participants;\r\n        mapping(address => bool) hasVoted;\r\n        mapping(uint256 => uint256) votes;\r\n        uint256 totalVotes;\r\n        string[] options;\r\n        bool isOpen;\r\n        address[] winners;\r\n    }\r\n\r\n    mapping(uint256 => Poll) public polls;\r\n    uint256 public pollCount;\r\n\r\n    event PollCreated(uint256 pollId, string title, uint256 endTime, uint256 reward, uint256 joinFee, string[] options, address creator);\r\n    event PollJoined(uint256 pollId, address participant);\r\n    event PollVoted(uint256 pollId, address voter, uint256 optionId);\r\n    event PollClosed(uint256 pollId, address[] winners);\r\n\r\n    function createPoll(\r\n        string memory _title,\r\n        uint256 _endTime,\r\n        uint256 _reward,\r\n        uint256 _joinFee,\r\n        string[] memory _options\r\n    ) external payable {\r\n        require(msg.value >= _reward + 0.5 ether, \"Insufficient payment for creating poll\");\r\n\r\n        // Check for duplicate options\r\n        for (uint256 i = 0; i < _options.length; i++) {\r\n            for (uint256 j = i + 1; j < _options.length; j++) {\r\n                require(\r\n                    keccak256(abi.encodePacked(_options[i])) != keccak256(abi.encodePacked(_options[j])),\r\n                    \"Duplicate options not allowed\"\r\n                );\r\n            }\r\n        }\r\n\r\n        uint256 pollId = pollCount++;\r\n        Poll storage poll = polls[pollId];\r\n        poll.title = _title;\r\n        poll.endTime = _endTime;\r\n        poll.reward = _reward;\r\n        poll.creator = msg.sender;\r\n        poll.options = _options;\r\n        poll.isOpen = true;\r\n        poll.joinFee = _joinFee;\r\n\r\n        emit PollCreated(pollId, _title, _endTime, _reward, _joinFee, _options, msg.sender);\r\n    }\r\n\r\n    function joinPoll(uint256 _pollId) external payable {\r\n        Poll storage poll = polls[_pollId];\r\n        require(poll.isOpen, \"Poll is closed\");\r\n        require(!poll.participants[msg.sender], \"Already joined\");\r\n        require(msg.value >= poll.joinFee, \"Insufficient payment for joining poll\");\r\n\r\n        // Check if the participant's address is already an option\r\n        for (uint256 i = 0; i < poll.options.length; i++) {\r\n            require(\r\n                keccak256(abi.encodePacked(poll.options[i])) != keccak256(abi.encodePacked(toAsciiString(msg.sender))),\r\n                \"Address already an option\"\r\n            );\r\n        }\r\n\r\n        address creator = poll.creator;\r\n\r\n        // Transfer the payment to the creator\r\n        payable(creator).transfer(msg.value);\r\n\r\n        // Mark the participant as joined\r\n        poll.participants[msg.sender] = true;\r\n\r\n        // Add the participant's address as a new option\r\n        poll.options.push(toAsciiString(msg.sender));\r\n\r\n        emit PollJoined(_pollId, msg.sender);\r\n    }\r\n\r\n    function vote(uint256 _pollId, uint256 _optionId) external {\r\n        Poll storage poll = polls[_pollId];\r\n        require(poll.isOpen, \"Poll is closed\");\r\n        require(!poll.hasVoted[msg.sender], \"Already voted\");\r\n        require(_optionId < poll.options.length, \"Invalid option\");\r\n\r\n        // Check if the voter is already an option\r\n        for (uint256 i = 0; i < poll.options.length; i++) {\r\n            require(\r\n                keccak256(abi.encodePacked(poll.options[i])) != keccak256(abi.encodePacked(toAsciiString(msg.sender))),\r\n                \"Voter is an option in this poll\"\r\n            );\r\n        }\r\n\r\n        poll.votes[_optionId]++;\r\n        poll.totalVotes++;\r\n        poll.hasVoted[msg.sender] = true;\r\n\r\n        emit PollVoted(_pollId, msg.sender, _optionId);\r\n    }\r\n\r\n    function closePoll(uint256 _pollId) public {\r\n        Poll storage poll = polls[_pollId];\r\n        require(block.timestamp >= poll.endTime, \"Poll is still open\");\r\n\r\n        poll.isOpen = false;\r\n\r\n        uint256 maxVotes = 0;\r\n        for (uint256 i = 0; i < poll.options.length; i++) {\r\n            if (poll.votes[i] > maxVotes) {\r\n                maxVotes = poll.votes[i];\r\n            }\r\n        }\r\n\r\n        // Check if all options have zero votes\r\n        bool allZeroVotes = true;\r\n        for (uint256 i = 0; i < poll.options.length; i++) {\r\n            if (poll.votes[i] > 0) {\r\n                allZeroVotes = false;\r\n                break;\r\n            }\r\n        }\r\n\r\n        if (allZeroVotes) {\r\n            // Return reward to the creator\r\n            payable(poll.creator).transfer(poll.reward);\r\n        } else {\r\n            for (uint256 i = 0; i < poll.options.length; i++) {\r\n                if (poll.votes[i] == maxVotes) {\r\n                    poll.winners.push(parseAddr(poll.options[i]));\r\n                }\r\n            }\r\n\r\n            if (poll.winners.length > 0) {\r\n                uint256 rewardPerWinner = poll.reward / poll.winners.length;\r\n                for (uint256 i = 0; i < poll.winners.length; i++) {\r\n                    payable(poll.winners[i]).transfer(rewardPerWinner);\r\n                }\r\n            }\r\n        }\r\n\r\n        emit PollClosed(_pollId, poll.winners);\r\n    }\r\n\r\n    function getOptions(uint256 _pollId) external view returns (string[] memory) {\r\n        return polls[_pollId].options;\r\n    }\r\n\r\n    function getVotes(uint256 _pollId, uint256 _optionId) external view returns (uint256) {\r\n        return polls[_pollId].votes[_optionId];\r\n    }\r\n\r\n    function getWinners(uint256 _pollId) external view returns (address[] memory) {\r\n        return polls[_pollId].winners;\r\n    }\r\n\r\n    function toAsciiString(address x) internal pure returns (string memory) {\r\n        bytes memory s = new bytes(40);\r\n        for (uint i = 0; i < 20; i++) {\r\n            bytes1 b = bytes1(uint8(uint(uint160(x)) / (2**(8*(19 - i)))));\r\n            bytes1 hi = bytes1(uint8(b) / 16);\r\n            bytes1 lo = bytes1(uint8(b) - 16 * uint8(hi));\r\n            s[2*i] = char(hi);\r\n            s[2*i+1] = char(lo);\r\n        }\r\n        return string(s);\r\n    }\r\n\r\n    function char(bytes1 b) internal pure returns (bytes1 c) {\r\n        if (uint8(b) < 10) return bytes1(uint8(b) + 0x30);\r\n        else return bytes1(uint8(b) + 0x57);\r\n    }\r\n\r\n    function parseAddr(string memory _a) internal pure returns (address) {\r\n        bytes memory tmp = bytes(_a);\r\n        uint160 iaddr = 0;\r\n        uint160 b1;\r\n        uint160 b2;\r\n        for (uint i = 0; i < 40; i += 2) {\r\n            iaddr *= 256;\r\n            b1 = uint160(uint8(tmp[i]));\r\n            b2 = uint160(uint8(tmp[i + 1]));\r\n            if ((b1 >= 97) && (b1 <= 102)) b1 -= 87;\r\n            else if ((b1 >= 48) && (b1 <= 57)) b1 -= 48;\r\n            if ((b2 >= 97) && (b2 <= 102)) b2 -= 87;\r\n            else if ((b2 >= 48) && (b2 <= 57)) b2 -= 48;\r\n            iaddr += (b1 * 16 + b2);\r\n        }\r\n        return address(iaddr);\r\n    }\r\n}",
  "sourcePath": "C:\\Windows\\System32\\voting\\contracts\\Voting.sol",
  "compiler": {
    "name": "solc",
    "version": "0.8.0+commit.c7dfd78e.Emscripten.clang"
  },
  "schemaVersion": "3.4.16",
  "updatedAt": "2024-06-04T10:07:29.087Z",
  "networkType": "ethereum",
  "devdoc": {
    "kind": "dev",
    "methods": {},
    "version": 1
  },
  "userdoc": {
    "kind": "user",
    "methods": {},
    "version": 1
  }
}